{
  "_format": "hh-sol-artifact-1",
  "contractName": "Storage",
  "sourceName": "contracts/contract.sol",
  "abi": [
    {
      "inputs": [],
      "stateMutability": "nonpayable",
      "type": "constructor"
    },
    {
      "inputs": [
        {
          "internalType": "uint256",
          "name": "value",
          "type": "uint256"
        },
        {
          "internalType": "uint256",
          "name": "length",
          "type": "uint256"
        }
      ],
      "name": "StringsInsufficientHexLength",
      "type": "error"
    },
    {
      "inputs": [],
      "name": "donate",
      "outputs": [],
      "stateMutability": "payable",
      "type": "function"
    },
    {
      "inputs": [],
      "name": "getTopDonators",
      "outputs": [
        {
          "internalType": "string",
          "name": "",
          "type": "string"
        }
      ],
      "stateMutability": "view",
      "type": "function"
    },
    {
      "inputs": [],
      "name": "random",
      "outputs": [],
      "stateMutability": "nonpayable",
      "type": "function"
    },
    {
      "inputs": [],
      "name": "withdraw",
      "outputs": [],
      "stateMutability": "nonpayable",
      "type": "function"
    }
  ],
  "bytecode": "0x6080604052348015600f57600080fd5b5033600160006101000a81548173ffffffffffffffffffffffffffffffffffffffff021916908373ffffffffffffffffffffffffffffffffffffffff160217905550610eaf806100606000396000f3fe60806040526004361061003f5760003560e01c80633ccfd60b146100445780635043e5011461005b5780635ec01e4d14610086578063ed88c68e1461009d575b600080fd5b34801561005057600080fd5b506100596100a7565b005b34801561006757600080fd5b506100706101a2565b60405161007d9190610a93565b60405180910390f35b34801561009257600080fd5b5061009b6103d8565b005b6100a561040a565b005b600160009054906101000a900473ffffffffffffffffffffffffffffffffffffffff1673ffffffffffffffffffffffffffffffffffffffff163373ffffffffffffffffffffffffffffffffffffffff1614610137576040517f08c379a000000000000000000000000000000000000000000000000000000000815260040161012e90610b01565b60405180910390fd5b600160009054906101000a900473ffffffffffffffffffffffffffffffffffffffff1673ffffffffffffffffffffffffffffffffffffffff166108fc479081150290604051600060405180830381858888f1935050505015801561019f573d6000803e3d6000fd5b50565b60606000600160009054906101000a900473ffffffffffffffffffffffffffffffffffffffff169050600080600160009054906101000a900473ffffffffffffffffffffffffffffffffffffffff1690506000805b60008054905081101561035857836000828154811061021957610218610b21565b5b90600052602060002090600202016001015411156102ac578492508391506000818154811061024b5761024a610b21565b5b906000526020600020906002020160000160009054906101000a900473ffffffffffffffffffffffffffffffffffffffff1694506000818154811061029357610292610b21565b5b906000526020600020906002020160010154935061034b565b81600082815481106102c1576102c0610b21565b5b906000526020600020906002020160010154111561034a57600081815481106102ed576102ec610b21565b5b906000526020600020906002020160000160009054906101000a900473ffffffffffffffffffffffffffffffffffffffff1692506000818154811061033557610334610b21565b5b90600052602060002090600202016001015491505b5b80806001019150506101f7565b5061037a8473ffffffffffffffffffffffffffffffffffffffff16601461059c565b610383846107e2565b6103a48473ffffffffffffffffffffffffffffffffffffffff16601461059c565b6103ad846107e2565b6040516020016103c09493929190610bfe565b60405160208183030381529060405294505050505090565b426040516020016103e99190610cef565b6040516020818303038152906040528051906020012060001c600281905550565b600134101561041857600080fd5b60005b6000805490508110156104ef573373ffffffffffffffffffffffffffffffffffffffff166000828154811061045357610452610b21565b5b906000526020600020906002020160000160009054906101000a900473ffffffffffffffffffffffffffffffffffffffff1673ffffffffffffffffffffffffffffffffffffffff16036104e25734600082815481106104b5576104b4610b21565b5b906000526020600020906002020160010160008282546104d59190610d44565b925050819055505061059a565b808060010191505061041b565b50600060405180604001604052803373ffffffffffffffffffffffffffffffffffffffff16815260200134815250908060018154018082558091505060019003906000526020600020906002020160009091909190915060008201518160000160006101000a81548173ffffffffffffffffffffffffffffffffffffffff021916908373ffffffffffffffffffffffffffffffffffffffff1602179055506020820151816001015550505b565b60606000839050600060028460026105b49190610d78565b6105be9190610d44565b67ffffffffffffffff8111156105d7576105d6610dba565b5b6040519080825280601f01601f1916602001820160405280156106095781602001600182028036833780820191505090505b5090507f30000000000000000000000000000000000000000000000000000000000000008160008151811061064157610640610b21565b5b60200101907effffffffffffffffffffffffffffffffffffffffffffffffffffffffffffff1916908160001a9053507f7800000000000000000000000000000000000000000000000000000000000000816001815181106106a5576106a4610b21565b5b60200101907effffffffffffffffffffffffffffffffffffffffffffffffffffffffffffff1916908160001a905350600060018560026106e59190610d78565b6106ef9190610d44565b90505b600181111561078f577f3031323334353637383961626364656600000000000000000000000000000000600f84166010811061073157610730610b21565b5b1a60f81b82828151811061074857610747610b21565b5b60200101907effffffffffffffffffffffffffffffffffffffffffffffffffffffffffffff1916908160001a905350600483901c92508061078890610de9565b90506106f2565b50600082146107d75784846040517fe22e27eb0000000000000000000000000000000000000000000000000000000081526004016107ce929190610e21565b60405180910390fd5b809250505092915050565b6060600060016107f1846108b0565b01905060008167ffffffffffffffff8111156108105761080f610dba565b5b6040519080825280601f01601f1916602001820160405280156108425781602001600182028036833780820191505090505b509050600082602001820190505b6001156108a5578080600190039150507f3031323334353637383961626364656600000000000000000000000000000000600a86061a8153600a858161089957610898610e4a565b5b04945060008503610850575b819350505050919050565b600080600090507a184f03e93ff9f4daa797ed6e38ed64bf6a1f010000000000000000831061090e577a184f03e93ff9f4daa797ed6e38ed64bf6a1f010000000000000000838161090457610903610e4a565b5b0492506040810190505b6d04ee2d6d415b85acef8100000000831061094b576d04ee2d6d415b85acef8100000000838161094157610940610e4a565b5b0492506020810190505b662386f26fc10000831061097a57662386f26fc1000083816109705761096f610e4a565b5b0492506010810190505b6305f5e10083106109a3576305f5e100838161099957610998610e4a565b5b0492506008810190505b61271083106109c85761271083816109be576109bd610e4a565b5b0492506004810190505b606483106109eb57606483816109e1576109e0610e4a565b5b0492506002810190505b600a83106109fa576001810190505b80915050919050565b600081519050919050565b600082825260208201905092915050565b60005b83811015610a3d578082015181840152602081019050610a22565b60008484015250505050565b6000601f19601f8301169050919050565b6000610a6582610a03565b610a6f8185610a0e565b9350610a7f818560208601610a1f565b610a8881610a49565b840191505092915050565b60006020820190508181036000830152610aad8184610a5a565b905092915050565b7f43616c6c6572206973206e6f74206f776e657200000000000000000000000000600082015250565b6000610aeb601383610a0e565b9150610af682610ab5565b602082019050919050565b60006020820190508181036000830152610b1a81610ade565b9050919050565b7f4e487b7100000000000000000000000000000000000000000000000000000000600052603260045260246000fd5b7f546f7020313a2000000000000000000000000000000000000000000000000000815250565b600081905092915050565b6000610b8c82610a03565b610b968185610b76565b9350610ba6818560208601610a1f565b80840191505092915050565b7f20646f6e6174696f6e3a20000000000000000000000000000000000000000000815250565b7f0a20546f7020323a200000000000000000000000000000000000000000000000815250565b6000610c0982610b50565b600782019150610c198287610b81565b9150610c2482610bb2565b600b82019150610c348286610b81565b9150610c3f82610bd8565b600982019150610c4f8285610b81565b9150610c5a82610bb2565b600b82019150610c6a8284610b81565b915081905095945050505050565b7f7365637265740000000000000000000000000000000000000000000000000000600082015250565b6000610cae600683610b76565b9150610cb982610c78565b600682019050919050565b6000819050919050565b6000819050919050565b610ce9610ce482610cc4565b610cce565b82525050565b6000610cfa82610ca1565b9150610d068284610cd8565b60208201915081905092915050565b7f4e487b7100000000000000000000000000000000000000000000000000000000600052601160045260246000fd5b6000610d4f82610cc4565b9150610d5a83610cc4565b9250828201905080821115610d7257610d71610d15565b5b92915050565b6000610d8382610cc4565b9150610d8e83610cc4565b9250828202610d9c81610cc4565b91508282048414831517610db357610db2610d15565b5b5092915050565b7f4e487b7100000000000000000000000000000000000000000000000000000000600052604160045260246000fd5b6000610df482610cc4565b915060008203610e0757610e06610d15565b5b600182039050919050565b610e1b81610cc4565b82525050565b6000604082019050610e366000830185610e12565b610e436020830184610e12565b9392505050565b7f4e487b7100000000000000000000000000000000000000000000000000000000600052601260045260246000fdfea2646970667358221220e838093d2b12a078907d37b90f49c1d74f837811956d119128977e04188c0e1a64736f6c634300081c0033",
  "linkReferences": {},
  "deployedLinkReferences": {}
}