{
  "_format": "hh-sol-artifact-1",
  "contractName": "Storage",
  "sourceName": "contracts/contract.sol",
  "abi": [
    {
      "inputs": [],
      "stateMutability": "nonpayable",
      "type": "constructor"
    },
    {
      "inputs": [
        {
          "internalType": "uint256",
          "name": "value",
          "type": "uint256"
        },
        {
          "internalType": "uint256",
          "name": "length",
          "type": "uint256"
        }
      ],
      "name": "StringsInsufficientHexLength",
      "type": "error"
    },
    {
      "inputs": [],
      "name": "checkRandom",
      "outputs": [
        {
          "internalType": "uint256",
          "name": "",
          "type": "uint256"
        }
      ],
      "stateMutability": "view",
      "type": "function"
    },
    {
      "inputs": [],
      "name": "donate",
      "outputs": [],
      "stateMutability": "payable",
      "type": "function"
    },
    {
      "inputs": [],
      "name": "getTopDonators",
      "outputs": [
        {
          "internalType": "string",
          "name": "",
          "type": "string"
        }
      ],
      "stateMutability": "view",
      "type": "function"
    },
    {
      "inputs": [],
      "name": "random",
      "outputs": [],
      "stateMutability": "nonpayable",
      "type": "function"
    },
    {
      "inputs": [],
      "name": "withdraw",
      "outputs": [],
      "stateMutability": "nonpayable",
      "type": "function"
    }
  ],
  "bytecode": "0x6080604052348015600f57600080fd5b5033600160006101000a81548173ffffffffffffffffffffffffffffffffffffffff021916908373ffffffffffffffffffffffffffffffffffffffff160217905550610f0a806100606000396000f3fe60806040526004361061004a5760003560e01c80633ccfd60b1461004f5780633efcbd58146100665780635043e501146100915780635ec01e4d146100bc578063ed88c68e146100d3575b600080fd5b34801561005b57600080fd5b506100646100dd565b005b34801561007257600080fd5b5061007b6101d8565b6040516100889190610a5c565b60405180910390f35b34801561009d57600080fd5b506100a66101e2565b6040516100b39190610b07565b60405180910390f35b3480156100c857600080fd5b506100d1610418565b005b6100db61044a565b005b600160009054906101000a900473ffffffffffffffffffffffffffffffffffffffff1673ffffffffffffffffffffffffffffffffffffffff163373ffffffffffffffffffffffffffffffffffffffff161461016d576040517f08c379a000000000000000000000000000000000000000000000000000000000815260040161016490610b75565b60405180910390fd5b600160009054906101000a900473ffffffffffffffffffffffffffffffffffffffff1673ffffffffffffffffffffffffffffffffffffffff166108fc479081150290604051600060405180830381858888f193505050501580156101d5573d6000803e3d6000fd5b50565b6000600254905090565b60606000600160009054906101000a900473ffffffffffffffffffffffffffffffffffffffff169050600080600160009054906101000a900473ffffffffffffffffffffffffffffffffffffffff1690506000805b60008054905081101561039857836000828154811061025957610258610b95565b5b90600052602060002090600202016001015411156102ec578492508391506000818154811061028b5761028a610b95565b5b906000526020600020906002020160000160009054906101000a900473ffffffffffffffffffffffffffffffffffffffff169450600081815481106102d3576102d2610b95565b5b906000526020600020906002020160010154935061038b565b816000828154811061030157610300610b95565b5b906000526020600020906002020160010154111561038a576000818154811061032d5761032c610b95565b5b906000526020600020906002020160000160009054906101000a900473ffffffffffffffffffffffffffffffffffffffff1692506000818154811061037557610374610b95565b5b90600052602060002090600202016001015491505b5b8080600101915050610237565b506103ba8473ffffffffffffffffffffffffffffffffffffffff1660146105dc565b6103c384610822565b6103e48473ffffffffffffffffffffffffffffffffffffffff1660146105dc565b6103ed84610822565b6040516020016104009493929190610c72565b60405160208183030381529060405294505050505090565b426040516020016104299190610d59565b6040516020818303038152906040528051906020012060001c600281905550565b600134101561045857600080fd5b60005b60008054905081101561052f573373ffffffffffffffffffffffffffffffffffffffff166000828154811061049357610492610b95565b5b906000526020600020906002020160000160009054906101000a900473ffffffffffffffffffffffffffffffffffffffff1673ffffffffffffffffffffffffffffffffffffffff16036105225734600082815481106104f5576104f4610b95565b5b906000526020600020906002020160010160008282546105159190610dae565b92505081905550506105da565b808060010191505061045b565b50600060405180604001604052803373ffffffffffffffffffffffffffffffffffffffff16815260200134815250908060018154018082558091505060019003906000526020600020906002020160009091909190915060008201518160000160006101000a81548173ffffffffffffffffffffffffffffffffffffffff021916908373ffffffffffffffffffffffffffffffffffffffff1602179055506020820151816001015550505b565b60606000839050600060028460026105f49190610de2565b6105fe9190610dae565b67ffffffffffffffff81111561061757610616610e24565b5b6040519080825280601f01601f1916602001820160405280156106495781602001600182028036833780820191505090505b5090507f30000000000000000000000000000000000000000000000000000000000000008160008151811061068157610680610b95565b5b60200101907effffffffffffffffffffffffffffffffffffffffffffffffffffffffffffff1916908160001a9053507f7800000000000000000000000000000000000000000000000000000000000000816001815181106106e5576106e4610b95565b5b60200101907effffffffffffffffffffffffffffffffffffffffffffffffffffffffffffff1916908160001a905350600060018560026107259190610de2565b61072f9190610dae565b90505b60018111156107cf577f3031323334353637383961626364656600000000000000000000000000000000600f84166010811061077157610770610b95565b5b1a60f81b82828151811061078857610787610b95565b5b60200101907effffffffffffffffffffffffffffffffffffffffffffffffffffffffffffff1916908160001a905350600483901c9250806107c890610e53565b9050610732565b50600082146108175784846040517fe22e27eb00000000000000000000000000000000000000000000000000000000815260040161080e929190610e7c565b60405180910390fd5b809250505092915050565b606060006001610831846108f0565b01905060008167ffffffffffffffff8111156108505761084f610e24565b5b6040519080825280601f01601f1916602001820160405280156108825781602001600182028036833780820191505090505b509050600082602001820190505b6001156108e5578080600190039150507f3031323334353637383961626364656600000000000000000000000000000000600a86061a8153600a85816108d9576108d8610ea5565b5b04945060008503610890575b819350505050919050565b600080600090507a184f03e93ff9f4daa797ed6e38ed64bf6a1f010000000000000000831061094e577a184f03e93ff9f4daa797ed6e38ed64bf6a1f010000000000000000838161094457610943610ea5565b5b0492506040810190505b6d04ee2d6d415b85acef8100000000831061098b576d04ee2d6d415b85acef8100000000838161098157610980610ea5565b5b0492506020810190505b662386f26fc1000083106109ba57662386f26fc1000083816109b0576109af610ea5565b5b0492506010810190505b6305f5e10083106109e3576305f5e10083816109d9576109d8610ea5565b5b0492506008810190505b6127108310610a085761271083816109fe576109fd610ea5565b5b0492506004810190505b60648310610a2b5760648381610a2157610a20610ea5565b5b0492506002810190505b600a8310610a3a576001810190505b80915050919050565b6000819050919050565b610a5681610a43565b82525050565b6000602082019050610a716000830184610a4d565b92915050565b600081519050919050565b600082825260208201905092915050565b60005b83811015610ab1578082015181840152602081019050610a96565b60008484015250505050565b6000601f19601f8301169050919050565b6000610ad982610a77565b610ae38185610a82565b9350610af3818560208601610a93565b610afc81610abd565b840191505092915050565b60006020820190508181036000830152610b218184610ace565b905092915050565b7f43616c6c6572206973206e6f74206f776e657200000000000000000000000000600082015250565b6000610b5f601383610a82565b9150610b6a82610b29565b602082019050919050565b60006020820190508181036000830152610b8e81610b52565b9050919050565b7f4e487b7100000000000000000000000000000000000000000000000000000000600052603260045260246000fd5b7f546f7020313a2000000000000000000000000000000000000000000000000000815250565b600081905092915050565b6000610c0082610a77565b610c0a8185610bea565b9350610c1a818560208601610a93565b80840191505092915050565b7f20646f6e6174696f6e3a20000000000000000000000000000000000000000000815250565b7f0a20546f7020323a200000000000000000000000000000000000000000000000815250565b6000610c7d82610bc4565b600782019150610c8d8287610bf5565b9150610c9882610c26565b600b82019150610ca88286610bf5565b9150610cb382610c4c565b600982019150610cc38285610bf5565b9150610cce82610c26565b600b82019150610cde8284610bf5565b915081905095945050505050565b7f7365637265740000000000000000000000000000000000000000000000000000600082015250565b6000610d22600683610bea565b9150610d2d82610cec565b600682019050919050565b6000819050919050565b610d53610d4e82610a43565b610d38565b82525050565b6000610d6482610d15565b9150610d708284610d42565b60208201915081905092915050565b7f4e487b7100000000000000000000000000000000000000000000000000000000600052601160045260246000fd5b6000610db982610a43565b9150610dc483610a43565b9250828201905080821115610ddc57610ddb610d7f565b5b92915050565b6000610ded82610a43565b9150610df883610a43565b9250828202610e0681610a43565b91508282048414831517610e1d57610e1c610d7f565b5b5092915050565b7f4e487b7100000000000000000000000000000000000000000000000000000000600052604160045260246000fd5b6000610e5e82610a43565b915060008203610e7157610e70610d7f565b5b600182039050919050565b6000604082019050610e916000830185610a4d565b610e9e6020830184610a4d565b9392505050565b7f4e487b7100000000000000000000000000000000000000000000000000000000600052601260045260246000fdfea264697066735822122099a80b8e327dd5e69888431f9bdf93482d20338b4a18b7df4eb5d899e5c11d3e64736f6c634300081c0033",
  "linkReferences": {},
  "deployedLinkReferences": {}
}